{
  "contractName": "Voting",
  "abi": [
    {
      "inputs": [
        {
          "internalType": "string[]",
          "name": "_candidates",
          "type": "string[]"
        }
      ],
      "stateMutability": "nonpayable",
      "type": "constructor"
    },
    {
      "inputs": [
        {
          "internalType": "uint256",
          "name": "",
          "type": "uint256"
        }
      ],
      "name": "candidates",
      "outputs": [
        {
          "internalType": "string",
          "name": "",
          "type": "string"
        }
      ],
      "stateMutability": "view",
      "type": "function",
      "constant": true
    },
    {
      "inputs": [],
      "name": "owner",
      "outputs": [
        {
          "internalType": "address",
          "name": "",
          "type": "address"
        }
      ],
      "stateMutability": "view",
      "type": "function",
      "constant": true
    },
    {
      "inputs": [
        {
          "internalType": "string",
          "name": "",
          "type": "string"
        }
      ],
      "name": "votes",
      "outputs": [
        {
          "internalType": "uint256",
          "name": "",
          "type": "uint256"
        }
      ],
      "stateMutability": "view",
      "type": "function",
      "constant": true
    },
    {
      "inputs": [
        {
          "internalType": "string",
          "name": "candidate",
          "type": "string"
        }
      ],
      "name": "vote",
      "outputs": [],
      "stateMutability": "nonpayable",
      "type": "function"
    },
    {
      "inputs": [
        {
          "internalType": "string",
          "name": "candidate",
          "type": "string"
        }
      ],
      "name": "getTotalVotes",
      "outputs": [
        {
          "internalType": "uint256",
          "name": "",
          "type": "uint256"
        }
      ],
      "stateMutability": "view",
      "type": "function",
      "constant": true
    }
  ],
  "bytecode": "0x60806040523480156200001157600080fd5b506040516200108238038062001082833981810160405281019062000037919062000481565b336000806101000a81548173ffffffffffffffffffffffffffffffffffffffff021916908373ffffffffffffffffffffffffffffffffffffffff16021790555080600190805190602001906200008f92919062000105565b5060005b600180549050811015620000fd576000600260018381548110620000bc57620000bb620004d2565b5b90600052602060002001604051620000d5919062000614565b9081526020016040518091039020819055508080620000f49062000666565b91505062000093565b505062000962565b82805482825590600052602060002090810192821562000152579160200282015b82811115620001515782518290816200014091906200087b565b509160200191906001019062000126565b5b50905062000161919062000165565b5090565b5b808211156200018957600081816200017f91906200018d565b5060010162000166565b5090565b5080546200019b9062000530565b6000825580601f10620001af5750620001d0565b601f016020900490600052602060002090810190620001cf9190620001d3565b5b50565b5b80821115620001ee576000816000905550600101620001d4565b5090565b6000604051905090565b600080fd5b600080fd5b600080fd5b6000601f19601f8301169050919050565b7f4e487b7100000000000000000000000000000000000000000000000000000000600052604160045260246000fd5b62000256826200020b565b810181811067ffffffffffffffff821117156200027857620002776200021c565b5b80604052505050565b60006200028d620001f2565b90506200029b82826200024b565b919050565b600067ffffffffffffffff821115620002be57620002bd6200021c565b5b602082029050602081019050919050565b600080fd5b600080fd5b600067ffffffffffffffff821115620002f757620002f66200021c565b5b62000302826200020b565b9050602081019050919050565b60005b838110156200032f57808201518184015260208101905062000312565b60008484015250505050565b6000620003526200034c84620002d9565b62000281565b905082815260208101848484011115620003715762000370620002d4565b5b6200037e8482856200030f565b509392505050565b600082601f8301126200039e576200039d62000206565b5b8151620003b08482602086016200033b565b91505092915050565b6000620003d0620003ca84620002a0565b62000281565b90508083825260208201905060208402830185811115620003f657620003f5620002cf565b5b835b818110156200044457805167ffffffffffffffff8111156200041f576200041e62000206565b5b8086016200042e898262000386565b85526020850194505050602081019050620003f8565b5050509392505050565b600082601f83011262000466576200046562000206565b5b815162000478848260208601620003b9565b91505092915050565b6000602082840312156200049a5762000499620001fc565b5b600082015167ffffffffffffffff811115620004bb57620004ba62000201565b5b620004c9848285016200044e565b91505092915050565b7f4e487b7100000000000000000000000000000000000000000000000000000000600052603260045260246000fd5b7f4e487b7100000000000000000000000000000000000000000000000000000000600052602260045260246000fd5b600060028204905060018216806200054957607f821691505b6020821081036200055f576200055e62000501565b5b50919050565b600081905092915050565b60008190508160005260206000209050919050565b60008154620005948162000530565b620005a0818662000565565b94506001821660008114620005be5760018114620005d4576200060b565b60ff19831686528115158202860193506200060b565b620005df8562000570565b60005b838110156200060357815481890152600182019150602081019050620005e2565b838801955050505b50505092915050565b600062000622828462000585565b915081905092915050565b7f4e487b7100000000000000000000000000000000000000000000000000000000600052601160045260246000fd5b6000819050919050565b600062000673826200065c565b91507fffffffffffffffffffffffffffffffffffffffffffffffffffffffffffffffff8203620006a857620006a76200062d565b5b600182019050919050565b600081519050919050565b60006020601f8301049050919050565b600082821b905092915050565b6000600883026200070d7fffffffffffffffffffffffffffffffffffffffffffffffffffffffffffffffff82620006ce565b620007198683620006ce565b95508019841693508086168417925050509392505050565b6000819050919050565b60006200075c6200075662000750846200065c565b62000731565b6200065c565b9050919050565b6000819050919050565b62000778836200073b565b62000790620007878262000763565b848454620006db565b825550505050565b600090565b620007a762000798565b620007b48184846200076d565b505050565b5b81811015620007dc57620007d06000826200079d565b600181019050620007ba565b5050565b601f8211156200082b57620007f58162000570565b6200080084620006be565b8101602085101562000810578190505b620008286200081f85620006be565b830182620007b9565b50505b505050565b600082821c905092915050565b6000620008506000198460080262000830565b1980831691505092915050565b60006200086b83836200083d565b9150826002028217905092915050565b6200088682620006b3565b67ffffffffffffffff811115620008a257620008a16200021c565b5b620008ae825462000530565b620008bb828285620007e0565b600060209050601f831160018114620008f35760008415620008de578287015190505b620008ea85826200085d565b8655506200095a565b601f198416620009038662000570565b60005b828110156200092d5784890151825560018201915060208501945060208101905062000906565b868310156200094d578489015162000949601f8916826200083d565b8355505b6001600288020188555050505b505050505050565b61071080620009726000396000f3fe608060405234801561001057600080fd5b50600436106100575760003560e01c80633477ee2e1461005c5780638da5cb5b1461008c57806398d16f75146100aa578063b99ef1fa146100da578063fc36e15b1461010a575b600080fd5b610076600480360381019061007191906102cd565b610126565b604051610083919061038a565b60405180910390f35b6100946101d2565b6040516100a191906103ed565b60405180910390f35b6100c460048036038101906100bf919061053d565b6101f6565b6040516100d19190610595565b60405180910390f35b6100f460048036038101906100ef919061053d565b61021e565b6040516101019190610595565b60405180910390f35b610124600480360381019061011f919061053d565b61024c565b005b6001818154811061013657600080fd5b906000526020600020016000915090508054610151906105df565b80601f016020809104026020016040519081016040528092919081815260200182805461017d906105df565b80156101ca5780601f1061019f576101008083540402835291602001916101ca565b820191906000526020600020905b8154815290600101906020018083116101ad57829003601f168201915b505050505081565b60008054906101000a900473ffffffffffffffffffffffffffffffffffffffff1681565b6000600282604051610208919061064c565b9081526020016040518091039020549050919050565b6002818051602081018201805184825260208301602085012081835280955050505050506000915090505481565b60028160405161025c919061064c565b9081526020016040518091039020600081548092919061027b90610692565b919050555050565b6000604051905090565b600080fd5b600080fd5b6000819050919050565b6102aa81610297565b81146102b557600080fd5b50565b6000813590506102c7816102a1565b92915050565b6000602082840312156102e3576102e261028d565b5b60006102f1848285016102b8565b91505092915050565b600081519050919050565b600082825260208201905092915050565b60005b83811015610334578082015181840152602081019050610319565b60008484015250505050565b6000601f19601f8301169050919050565b600061035c826102fa565b6103668185610305565b9350610376818560208601610316565b61037f81610340565b840191505092915050565b600060208201905081810360008301526103a48184610351565b905092915050565b600073ffffffffffffffffffffffffffffffffffffffff82169050919050565b60006103d7826103ac565b9050919050565b6103e7816103cc565b82525050565b600060208201905061040260008301846103de565b92915050565b600080fd5b600080fd5b7f4e487b7100000000000000000000000000000000000000000000000000000000600052604160045260246000fd5b61044a82610340565b810181811067ffffffffffffffff8211171561046957610468610412565b5b80604052505050565b600061047c610283565b90506104888282610441565b919050565b600067ffffffffffffffff8211156104a8576104a7610412565b5b6104b182610340565b9050602081019050919050565b82818337600083830152505050565b60006104e06104db8461048d565b610472565b9050828152602081018484840111156104fc576104fb61040d565b5b6105078482856104be565b509392505050565b600082601f83011261052457610523610408565b5b81356105348482602086016104cd565b91505092915050565b6000602082840312156105535761055261028d565b5b600082013567ffffffffffffffff81111561057157610570610292565b5b61057d8482850161050f565b91505092915050565b61058f81610297565b82525050565b60006020820190506105aa6000830184610586565b92915050565b7f4e487b7100000000000000000000000000000000000000000000000000000000600052602260045260246000fd5b600060028204905060018216806105f757607f821691505b60208210810361060a576106096105b0565b5b50919050565b600081905092915050565b6000610626826102fa565b6106308185610610565b9350610640818560208601610316565b80840191505092915050565b6000610658828461061b565b915081905092915050565b7f4e487b7100000000000000000000000000000000000000000000000000000000600052601160045260246000fd5b600061069d82610297565b91507fffffffffffffffffffffffffffffffffffffffffffffffffffffffffffffffff82036106cf576106ce610663565b5b60018201905091905056fea264697066735822122024c81477e147c1ec6275629c8d6768cd1eab09a32b2dfbebc7c810cd4b8827ba64736f6c63430008130033",
  "immutableReferences": {},
  "source": "// SPDX-License-Identifier: MIT\r\npragma solidity >=0.4.22 <0.9.0;\r\n\r\ncontract Voting {\r\n    address public owner;\r\n    string[] public candidates;\r\n    mapping(string => uint256) public votes;\r\n\r\n    // event Voted(address indexed voter, string candidate);\r\n\r\n    // modifier onlyOwner() {\r\n    //     require(msg.sender == owner, \"Only the owner can call this function\");\r\n    //     _;\r\n    // }\r\n\r\n    constructor(string[] memory _candidates) {\r\n        owner = msg.sender;\r\n        candidates = _candidates;\r\n\r\n        // Initialize votes to zero for each candidate\r\n        for (uint256 i = 0; i < candidates.length; i++) {\r\n            votes[candidates[i]] = 0;\r\n        }\r\n    }\r\n\r\n    function vote(string memory candidate) external {\r\n        // require(isValidCandidate(candidate), \"Invalid candidate\");\r\n\r\n        votes[candidate]++;\r\n        // emit Voted(msg.sender, candidate);\r\n    }\r\n\r\n    function getTotalVotes(string memory candidate) external view returns (uint256) {\r\n        // require(isValidCandidate(candidate), \"Invalid candidate\");\r\n        return votes[candidate];\r\n    }\r\n}",
  "sourcePath": "D:\\ASU Docs\\3rd sem subjects\\CSE 598\\Project\\techdot\\contracts\\Voting.sol",
  "compiler": {
    "name": "solc",
    "version": "0.8.19+commit.7dd6d404.Emscripten.clang"
  },
  "schemaVersion": "3.4.16",
  "updatedAt": "2023-11-26T21:28:18.832Z",
  "networkType": "ethereum",
  "devdoc": {
    "kind": "dev",
    "methods": {},
    "version": 1
  },
  "userdoc": {
    "kind": "user",
    "methods": {},
    "version": 1
  }
}